{
  "contractName": "DisputesManager",
  "abi": [
    {
      "constant": true,
      "inputs": [],
      "name": "owner",
      "outputs": [
        {
          "name": "",
          "type": "address"
        }
      ],
      "payable": false,
      "stateMutability": "view",
      "type": "function"
    },
    {
      "constant": true,
      "inputs": [],
      "name": "judgeContract",
      "outputs": [
        {
          "name": "",
          "type": "address"
        }
      ],
      "payable": false,
      "stateMutability": "view",
      "type": "function"
    },
    {
      "constant": true,
      "inputs": [
        {
          "name": "",
          "type": "uint256"
        }
      ],
      "name": "cases",
      "outputs": [
        {
          "name": "id",
          "type": "uint256"
        },
        {
          "name": "ipfsContractHash",
          "type": "string"
        }
      ],
      "payable": false,
      "stateMutability": "view",
      "type": "function"
    },
    {
      "inputs": [
        {
          "name": "_judgeContract",
          "type": "address"
        }
      ],
      "payable": false,
      "stateMutability": "nonpayable",
      "type": "constructor"
    },
    {
      "anonymous": false,
      "inputs": [
        {
          "indexed": false,
          "name": "id",
          "type": "uint256"
        },
        {
          "indexed": false,
          "name": "party",
          "type": "address[]"
        },
        {
          "indexed": false,
          "name": "stages",
          "type": "uint256"
        }
      ],
      "name": "OpenCase",
      "type": "event"
    },
    {
      "anonymous": false,
      "inputs": [
        {
          "indexed": false,
          "name": "id",
          "type": "uint256"
        },
        {
          "indexed": false,
          "name": "stage",
          "type": "uint256"
        },
        {
          "indexed": false,
          "name": "opener",
          "type": "address"
        },
        {
          "indexed": false,
          "name": "isOwner",
          "type": "bool"
        }
      ],
      "name": "OpenDispute",
      "type": "event"
    },
    {
      "anonymous": false,
      "inputs": [
        {
          "indexed": false,
          "name": "id",
          "type": "uint256"
        },
        {
          "indexed": false,
          "name": "stage",
          "type": "uint256"
        },
        {
          "indexed": false,
          "name": "ipfsHash",
          "type": "string"
        }
      ],
      "name": "FinishDispute",
      "type": "event"
    },
    {
      "anonymous": false,
      "inputs": [
        {
          "indexed": false,
          "name": "id",
          "type": "uint256"
        }
      ],
      "name": "FinishCase",
      "type": "event"
    },
    {
      "anonymous": false,
      "inputs": [
        {
          "indexed": false,
          "name": "from",
          "type": "address"
        },
        {
          "indexed": false,
          "name": "to",
          "type": "address"
        }
      ],
      "name": "OwnershipTransferred",
      "type": "event"
    },
    {
      "anonymous": false,
      "inputs": [
        {
          "indexed": false,
          "name": "from",
          "type": "address"
        },
        {
          "indexed": false,
          "name": "to",
          "type": "address"
        }
      ],
      "name": "JudgeContractChanged",
      "type": "event"
    },
    {
      "constant": false,
      "inputs": [
        {
          "name": "id",
          "type": "uint256"
        },
        {
          "name": "party",
          "type": "address[]"
        },
        {
          "name": "stages_starts",
          "type": "uint32[]"
        },
        {
          "name": "stages_dispute_starts",
          "type": "uint32[]"
        },
        {
          "name": "stages_owners",
          "type": "address[]"
        },
        {
          "name": "ipfsHash",
          "type": "string"
        }
      ],
      "name": "openCase",
      "outputs": [],
      "payable": false,
      "stateMutability": "nonpayable",
      "type": "function"
    },
    {
      "constant": false,
      "inputs": [
        {
          "name": "id",
          "type": "uint256"
        },
        {
          "name": "stage",
          "type": "uint256"
        }
      ],
      "name": "openDispute",
      "outputs": [],
      "payable": false,
      "stateMutability": "nonpayable",
      "type": "function"
    },
    {
      "constant": false,
      "inputs": [
        {
          "name": "id",
          "type": "uint256"
        },
        {
          "name": "stage",
          "type": "uint256"
        },
        {
          "name": "resultIpfsHash",
          "type": "string"
        },
        {
          "name": "forceFinish",
          "type": "bool"
        }
      ],
      "name": "closeDispute",
      "outputs": [],
      "payable": false,
      "stateMutability": "nonpayable",
      "type": "function"
    },
    {
      "constant": false,
      "inputs": [
        {
          "name": "id",
          "type": "uint256"
        }
      ],
      "name": "finishCase",
      "outputs": [],
      "payable": false,
      "stateMutability": "nonpayable",
      "type": "function"
    },
    {
      "constant": false,
      "inputs": [
        {
          "name": "newOwner",
          "type": "address"
        }
      ],
      "name": "transferOwnership",
      "outputs": [],
      "payable": false,
      "stateMutability": "nonpayable",
      "type": "function"
    },
    {
      "constant": false,
      "inputs": [
        {
          "name": "newJudgeContract",
          "type": "address"
        }
      ],
      "name": "changeJudgeContract",
      "outputs": [],
      "payable": false,
      "stateMutability": "nonpayable",
      "type": "function"
    }
  ],
  "bytecode": "0x608060405234801561001057600080fd5b506040516020806120e08339810180604052810190808051906020019092919050505080600160006101000a81548173ffffffffffffffffffffffffffffffffffffffff021916908373ffffffffffffffffffffffffffffffffffffffff160217905550336000806101000a81548173ffffffffffffffffffffffffffffffffffffffff021916908373ffffffffffffffffffffffffffffffffffffffff1602179055505061201c806100c46000396000f300608060405260043610610099576000357c0100000000000000000000000000000000000000000000000000000000900463ffffffff1680630a82c0ac1461009e57806365ce5ada146100e157806366825d78146102605780636cb9087c146102e95780638da5cb5b14610320578063d6b683fc14610377578063eaa74239146103ce578063f09790dd146103fb578063f2fde38b146104a8575b600080fd5b3480156100aa57600080fd5b506100df600480360381019080803573ffffffffffffffffffffffffffffffffffffffff1690602001909291905050506104eb565b005b3480156100ed57600080fd5b5061025e6004803603810190808035906020019092919080359060200190820180359060200190808060200260200160405190810160405280939291908181526020018383602002808284378201915050505050509192919290803590602001908201803590602001908080602002602001604051908101604052809392919081815260200183836020028082843782019150505050505091929192908035906020019082018035906020019080806020026020016040519081016040528093929190818152602001838360200280828437820191505050505050919291929080359060200190820180359060200190808060200260200160405190810160405280939291908181526020018383602002808284378201915050505050509192919290803590602001908201803590602001908080601f01602080910402602001604051908101604052809392919081815260200183838082843782019150505050505091929192905050506106d7565b005b34801561026c57600080fd5b506102e76004803603810190808035906020019092919080359060200190929190803590602001908201803590602001908080601f0160208091040260200160405190810160405280939291908181526020018383808284378201915050505050509192919290803515159060200190929190505050610b0f565b005b3480156102f557600080fd5b5061031e6004803603810190808035906020019092919080359060200190929190505050610e2d565b005b34801561032c57600080fd5b50610335611262565b604051808273ffffffffffffffffffffffffffffffffffffffff1673ffffffffffffffffffffffffffffffffffffffff16815260200191505060405180910390f35b34801561038357600080fd5b5061038c611287565b604051808273ffffffffffffffffffffffffffffffffffffffff1673ffffffffffffffffffffffffffffffffffffffff16815260200191505060405180910390f35b3480156103da57600080fd5b506103f9600480360381019080803590602001909291905050506112ad565b005b34801561040757600080fd5b5061042660048036038101908080359060200190929190505050611628565b6040518083815260200180602001828103825283818151815260200191508051906020019080838360005b8381101561046c578082015181840152602081019050610451565b50505050905090810190601f1680156104995780820380516001836020036101000a031916815260200191505b50935050505060405180910390f35b3480156104b457600080fd5b506104e9600480360381019080803573ffffffffffffffffffffffffffffffffffffffff1690602001909291905050506116e4565b005b600160009054906101000a900473ffffffffffffffffffffffffffffffffffffffff1673ffffffffffffffffffffffffffffffffffffffff163373ffffffffffffffffffffffffffffffffffffffff16148061059357506000809054906101000a900473ffffffffffffffffffffffffffffffffffffffff1673ffffffffffffffffffffffffffffffffffffffff163373ffffffffffffffffffffffffffffffffffffffff16145b151561059e57600080fd5b600073ffffffffffffffffffffffffffffffffffffffff168173ffffffffffffffffffffffffffffffffffffffff16141515156105da57600080fd5b7fe6cbb61ac7add306480e44d343626fe6de9677c4d2a31d270d96c7ba772387d0600160009054906101000a900473ffffffffffffffffffffffffffffffffffffffff1682604051808373ffffffffffffffffffffffffffffffffffffffff1673ffffffffffffffffffffffffffffffffffffffff1681526020018273ffffffffffffffffffffffffffffffffffffffff1673ffffffffffffffffffffffffffffffffffffffff1681526020019250505060405180910390a180600160006101000a81548173ffffffffffffffffffffffffffffffffffffffff021916908373ffffffffffffffffffffffffffffffffffffffff16021790555050565b6000606060006106e5611907565b600360008b81526020019081526020016000209350875184816107089190611930565b5087516040519080825280602002602001820160405280156107395781602001602082028038833980820191505090505b509250600091505b83805490508210156109b857858281518110151561075b57fe5b90602001906020020151848381548110151561077357fe5b906000526020600020906004020160000160006101000a81548173ffffffffffffffffffffffffffffffffffffffff021916908373ffffffffffffffffffffffffffffffffffffffff16021790555087828151811015156107d057fe5b9060200190602002015184838154811015156107e857fe5b906000526020600020906004020160010160146101000a81548163ffffffff021916908363ffffffff160217905550868281518110151561082557fe5b90602001906020020151848381548110151561083d57fe5b906000526020600020906004020160010160186101000a81548163ffffffff021916908363ffffffff1602179055506000848381548110151561087c57fe5b9060005260206000209060040201600101601c6101000a81548163ffffffff021916908363ffffffff160217905550600084838154811015156108bb57fe5b906000526020600020906004020160010160006101000a81548173ffffffffffffffffffffffffffffffffffffffff021916908373ffffffffffffffffffffffffffffffffffffffff1602179055506000848381548110151561091a57fe5b906000526020600020906004020160020160006101000a81548160ff021916908360ff1602179055506020604051908101604052806000815250848381548110151561096257fe5b90600052602060002090600402016003019080519060200190610986929190611962565b506000838381518110151561099757fe5b90602001906020020190151590811515815250508180600101925050610741565b6080604051908101604052808b81526020018681526020018a815260200184815250905080600260008c8152602001908152602001600020600082015181600001556020820151816001019080519060200190610a169291906119e2565b506040820151816002019080519060200190610a33929190611a62565b506060820151816003019080519060200190610a50929190611aec565b5090505083600360008c8152602001908152602001600020908054610a76929190611b92565b507fcdfe49a203a22436e02f55e6cc1b66f2b86bac8c19000e1df2daea40b0af3b408a8a86805490506040518084815260200180602001838152602001828103825284818151815260200191508051906020019060200280838360005b83811015610aee578082015181840152602081019050610ad3565b5050505090500194505050505060405180910390a150505050505050505050565b600080600160009054906101000a900473ffffffffffffffffffffffffffffffffffffffff1673ffffffffffffffffffffffffffffffffffffffff163373ffffffffffffffffffffffffffffffffffffffff16141515610b6e57600080fd5b8560008060019150600090505b6002600084815260200190815260200160002060020180549050811015610bfb576002600084815260200190815260200160002060030181815481101515610bbf57fe5b90600052602060002090602091828204019190069054906101000a900460ff161515610bee5760009150610bfb565b8080600101915050610b7b565b81151515610c0857600080fd5b8888600360008381526020019081526020016000208054905081101515610c2e57600080fd5b60016003600084815260200190815260200160002082815481101515610c5057fe5b906000526020600020906004020160020160009054906101000a900460ff1660ff16141515610c7e57600080fd5b88600360008d81526020019081526020016000208b815481101515610c9f57fe5b90600052602060002090600402016003019080519060200190610cc3929190611962565b507fa47b0aab53956d99be950b52a58e69b7bb026099ec3ba1d5c3cba175c64a57198b8b8b6040518084815260200183815260200180602001828103825283818151815260200191508051906020019080838360005b83811015610d34578082015181840152602081019050610d19565b50505050905090810190601f168015610d615780820380516001836020036101000a031916815260200191505b5094505050505060405180910390a18715610e2057600260008c81526020019081526020016000209650600095505b8660020180549050861015610de85760018760030187815481101515610db257fe5b90600052602060002090602091828204019190066101000a81548160ff0219169083151502179055508580600101965050610d90565b7f83f4c275df288db13e6fd4967f5d8736a2036b4370ce8e380b8a3a426ccc3c058b6040518082815260200191505060405180910390a15b5050505050505050505050565b60008260008060009150600090505b6002600084815260200190815260200160002060020180549050811015610ef4573373ffffffffffffffffffffffffffffffffffffffff166002600085815260200190815260200160002060020182815481101515610e9757fe5b9060005260206000200160009054906101000a900473ffffffffffffffffffffffffffffffffffffffff1673ffffffffffffffffffffffffffffffffffffffff161415610ee75760019150610ef4565b8080600101915050610e3c565b811515610f0057600080fd5b8560008060019150600090505b6002600084815260200190815260200160002060020180549050811015610f8d576002600084815260200190815260200160002060030181815481101515610f5157fe5b90600052602060002090602091828204019190069054906101000a900460ff161515610f805760009150610f8d565b8080600101915050610f0d565b81151515610f9a57600080fd5b886000610fa682611876565b9050600360008381526020019081526020016000208054905081141515610fcc57600080fd5b8a8a600360008381526020019081526020016000208054905081101515610ff257600080fd5b42600360008481526020019081526020016000208281548110151561101357fe5b906000526020600020906004020160010160189054906101000a900463ffffffff1663ffffffff1610151561104757600080fd5b33600360008f81526020019081526020016000208d81548110151561106857fe5b906000526020600020906004020160010160006101000a81548173ffffffffffffffffffffffffffffffffffffffff021916908373ffffffffffffffffffffffffffffffffffffffff16021790555042600360008f81526020019081526020016000208d8154811015156110d857fe5b9060005260206000209060040201600101601c6101000a81548163ffffffff021916908363ffffffff1602179055506001600360008f81526020019081526020016000208d81548110151561112957fe5b906000526020600020906004020160020160006101000a81548160ff021916908360ff160217905550600360008e81526020019081526020016000208c81548110151561117257fe5b906000526020600020906004020160000160009054906101000a900473ffffffffffffffffffffffffffffffffffffffff169a507f3e533b733e393cd4cb815b0096199c6ddb2bf2ad1eadea3b7ff5dfda456ca7ae8d8d338e73ffffffffffffffffffffffffffffffffffffffff163373ffffffffffffffffffffffffffffffffffffffff1614604051808581526020018481526020018373ffffffffffffffffffffffffffffffffffffffff1673ffffffffffffffffffffffffffffffffffffffff1681526020018215151515815260200194505050505060405180910390a150505050505050505050505050565b6000809054906101000a900473ffffffffffffffffffffffffffffffffffffffff1681565b600160009054906101000a900473ffffffffffffffffffffffffffffffffffffffff1681565b6000808260008060009150600090505b6002600084815260200190815260200160002060020180549050811015611375573373ffffffffffffffffffffffffffffffffffffffff16600260008581526020019081526020016000206002018281548110151561131857fe5b9060005260206000200160009054906101000a900473ffffffffffffffffffffffffffffffffffffffff1673ffffffffffffffffffffffffffffffffffffffff1614156113685760019150611375565b80806001019150506112bd565b81151561138157600080fd5b8560008060019150600090505b600260008481526020019081526020016000206002018054905081101561140e5760026000848152602001908152602001600020600301818154811015156113d257fe5b90600052602060002090602091828204019190069054906101000a900460ff161515611401576000915061140e565b808060010191505061138e565b8115151561141b57600080fd5b88600061142782611876565b905060036000838152602001908152602001600020805490508114151561144d57600080fd5b600099505b600260008c8152602001908152602001600020600201805490508a1015611554573373ffffffffffffffffffffffffffffffffffffffff16600260008d81526020019081526020016000206002018b8154811015156114ad57fe5b9060005260206000200160009054906101000a900473ffffffffffffffffffffffffffffffffffffffff1673ffffffffffffffffffffffffffffffffffffffff161415611547576001600260008d81526020019081526020016000206003018b81548110151561151957fe5b90600052602060002090602091828204019190066101000a81548160ff021916908315150217905550611554565b89806001019a5050611452565b60019850600099505b600260008c8152602001908152602001600020600201805490508a10156115dd57600260008c81526020019081526020016000206003018a8154811015156115a157fe5b90600052602060002090602091828204019190069054906101000a900460ff1615156115d057600098506115dd565b89806001019a505061155d565b881561161b577f83f4c275df288db13e6fd4967f5d8736a2036b4370ce8e380b8a3a426ccc3c058b6040518082815260200191505060405180910390a15b5050505050505050505050565b6002602052806000526040600020600091509050806000015490806001018054600181600116156101000203166002900480601f0160208091040260200160405190810160405280929190818152602001828054600181600116156101000203166002900480156116da5780601f106116af576101008083540402835291602001916116da565b820191906000526020600020905b8154815290600101906020018083116116bd57829003601f168201915b5050505050905082565b6000809054906101000a900473ffffffffffffffffffffffffffffffffffffffff1673ffffffffffffffffffffffffffffffffffffffff163373ffffffffffffffffffffffffffffffffffffffff1614151561173f57600080fd5b600073ffffffffffffffffffffffffffffffffffffffff168173ffffffffffffffffffffffffffffffffffffffff161415151561177b57600080fd5b7f8be0079c531659141344cd1fd0a4f28419497f9722a3daafe3b4186f6b6457e06000809054906101000a900473ffffffffffffffffffffffffffffffffffffffff1682604051808373ffffffffffffffffffffffffffffffffffffffff1673ffffffffffffffffffffffffffffffffffffffff1681526020018273ffffffffffffffffffffffffffffffffffffffff1673ffffffffffffffffffffffffffffffffffffffff1681526020019250505060405180910390a1806000806101000a81548173ffffffffffffffffffffffffffffffffffffffff021916908373ffffffffffffffffffffffffffffffffffffffff16021790555050565b6000806000600360008581526020019081526020016000209150600090505b81805490508163ffffffff1610156118f7576001828263ffffffff168154811015156118bd57fe5b906000526020600020906004020160020160009054906101000a900460ff1660ff1614156118ea576118f7565b8080600101915050611895565b8063ffffffff1692505050919050565b608060405190810160405280600081526020016060815260200160608152602001606081525090565b81548183558181111561195d5760040281600402836000526020600020918201910161195c9190611db3565b5b505050565b828054600181600116156101000203166002900490600052602060002090601f016020900481019282601f106119a357805160ff19168380011785556119d1565b828001600101855582156119d1579182015b828111156119d05782518255916020019190600101906119b5565b5b5090506119de9190611e89565b5090565b828054600181600116156101000203166002900490600052602060002090601f016020900481019282601f10611a2357805160ff1916838001178555611a51565b82800160010185558215611a51579182015b82811115611a50578251825591602001919060010190611a35565b5b509050611a5e9190611e89565b5090565b828054828255906000526020600020908101928215611adb579160200282015b82811115611ada5782518260006101000a81548173ffffffffffffffffffffffffffffffffffffffff021916908373ffffffffffffffffffffffffffffffffffffffff16021790555091602001919060010190611a82565b5b509050611ae89190611eae565b5090565b82805482825590600052602060002090601f01602090048101928215611b815791602002820160005b83821115611b5257835183826101000a81548160ff0219169083151502179055509260200192600101602081600001049283019260010302611b15565b8015611b7f5782816101000a81549060ff0219169055600101602081600001049283019260010302611b52565b505b509050611b8e9190611ef1565b5090565b828054828255906000526020600020906004028101928215611da25760005260206000209160040282015b82811115611da15782826000820160009054906101000a900473ffffffffffffffffffffffffffffffffffffffff168160000160006101000a81548173ffffffffffffffffffffffffffffffffffffffff021916908373ffffffffffffffffffffffffffffffffffffffff1602179055506001820160009054906101000a900473ffffffffffffffffffffffffffffffffffffffff168160010160006101000a81548173ffffffffffffffffffffffffffffffffffffffff021916908373ffffffffffffffffffffffffffffffffffffffff1602179055506001820160149054906101000a900463ffffffff168160010160146101000a81548163ffffffff021916908363ffffffff1602179055506001820160189054906101000a900463ffffffff168160010160186101000a81548163ffffffff021916908363ffffffff16021790555060018201601c9054906101000a900463ffffffff1681600101601c6101000a81548163ffffffff021916908363ffffffff1602179055506002820160009054906101000a900460ff168160020160006101000a81548160ff021916908360ff16021790555060038201816003019080546001816001161561010002031660029004611d8f929190611f21565b50505091600401919060040190611bbd565b5b509050611daf9190611db3565b5090565b611e8691905b80821115611e8257600080820160006101000a81549073ffffffffffffffffffffffffffffffffffffffff02191690556001820160006101000a81549073ffffffffffffffffffffffffffffffffffffffff02191690556001820160146101000a81549063ffffffff02191690556001820160186101000a81549063ffffffff021916905560018201601c6101000a81549063ffffffff02191690556002820160006101000a81549060ff0219169055600382016000611e799190611fa8565b50600401611db9565b5090565b90565b611eab91905b80821115611ea7576000816000905550600101611e8f565b5090565b90565b611eee91905b80821115611eea57600081816101000a81549073ffffffffffffffffffffffffffffffffffffffff021916905550600101611eb4565b5090565b90565b611f1e91905b80821115611f1a57600081816101000a81549060ff021916905550600101611ef7565b5090565b90565b828054600181600116156101000203166002900490600052602060002090601f016020900481019282601f10611f5a5780548555611f97565b82800160010185558215611f9757600052602060002091601f016020900482015b82811115611f96578254825591600101919060010190611f7b565b5b509050611fa49190611e89565b5090565b50805460018160011615610100020316600290046000825580601f10611fce5750611fed565b601f016020900490600052602060002090810190611fec9190611e89565b5b505600a165627a7a723058200aab6c3cb41348ca078bb313c4346f2c48e0631f69f4fa1b06433d4ffbb0a4320029",
  "source": "pragma solidity ^0.4.24;\n\ncontract DisputesManager {\n  address public owner;\n  address public judgeContract;\n\n  struct Stage {\n    address owner;\n    address disputeStarter;\n    uint32 start;\n    uint32 disputeStartAllowed;\n    uint32 disputeStart;\n    uint8 disputed;\n    string ipfsDisputeResultHash;\n  }\n\n  struct Case {\n    uint id;\n    string ipfsContractHash;\n    address[] participants;\n    bool[] finished;\n  }\n\n  mapping(uint => Case) public cases;\n  mapping(uint => Stage[]) caseStages;\n\n  event OpenCase(uint id, address[] party, uint stages);\n  event OpenDispute(uint id, uint stage, address opener, bool isOwner);\n  event FinishDispute(uint id, uint stage, string ipfsHash);\n  event FinishCase(uint id);\n\n  modifier onlyParty(uint id) {\n    bool hasInParty = false;\n    for (uint i = 0; i < cases[id].participants.length; i++) {\n      if (cases[id].participants[i] == msg.sender) {\n        hasInParty = true;\n        break;\n      }\n    }\n    require(hasInParty);\n    _;\n  }\n\n  modifier caseNotFinished(uint id) {\n    bool all = true;\n    for (uint i = 0; i < cases[id].participants.length; i++) {\n      if (!cases[id].finished[i]) {\n        all = false;\n        break;\n      }\n    }\n    require(!all);\n    _;\n  }\n\n  modifier canOpenDispute(uint id, uint stage) {\n    require(stage < caseStages[id].length);\n    require(caseStages[id][stage].disputeStartAllowed < now);\n    _;\n  }\n\n  modifier isStageDisputed(uint id, uint stage) {\n    require(stage < caseStages[id].length);\n    require(caseStages[id][stage].disputed == 1);\n    _;\n  }\n\n  modifier isNotDisputed(uint id) {\n    uint st = findDisputedStage(id);\n    require(st == caseStages[id].length);\n    _;\n  }\n\n  modifier onlyJudges() {\n    require(msg.sender == judgeContract);\n    _;\n  }\n\n  function openCase(uint id, address[] party, uint32[] stages_starts,\n                    uint32[] stages_dispute_starts, address[] stages_owners,\n                    string ipfsHash) public {\n    Stage[] storage stages = caseStages[id];\n    stages.length = stages_starts.length;\n    bool[] memory finished = new bool[](stages_starts.length);\n    for (uint i = 0; i < stages.length; i++) {\n      stages[i].owner = stages_owners[i];\n      stages[i].start = stages_starts[i];\n      stages[i].disputeStartAllowed = stages_dispute_starts[i];\n      stages[i].disputeStart = 0;\n      stages[i].disputeStarter = address(0);\n      stages[i].disputed = 0;\n      stages[i].ipfsDisputeResultHash = '';\n      finished[i] = false;\n    }\n    Case memory currCase = Case(id, ipfsHash, party, finished);\n    cases[id] = currCase;\n    caseStages[id] = stages;\n    emit OpenCase(id, party, stages.length);\n  }\n\n  function findDisputedStage(uint id) private view returns (uint) {\n    Stage[] storage stages = caseStages[id];\n    uint32 i = 0;\n    for (; i < stages.length; i++) {\n      if (stages[i].disputed == 1) {\n        break;\n      }\n    }\n    return i;\n  }\n\n  function openDispute(uint id, uint stage) public onlyParty(id)\n                                            caseNotFinished(id)\n                                            isNotDisputed(id)\n                                            canOpenDispute(id, stage) {\n    caseStages[id][stage].disputeStarter = msg.sender;\n    caseStages[id][stage].disputeStart = uint32(now);\n    caseStages[id][stage].disputed = 1;\n    address stageOwner = caseStages[id][stage].owner;\n    emit OpenDispute(id, stage, msg.sender, msg.sender == stageOwner);\n  }\n\n  /**\n   * Close dispute opened on specified stage by judges decision.\n   * Finish the case if the decision closes the case fully, not only stage.\n   * events: FinishDispute, FinishCase\n   */\n  function closeDispute(uint id, uint stage, string resultIpfsHash,\n                        bool forceFinish) public onlyJudges\n                                          caseNotFinished(id)\n                                          isStageDisputed(id, stage) {\n    caseStages[id][stage].ipfsDisputeResultHash = resultIpfsHash;\n\n    emit FinishDispute(id, stage, resultIpfsHash);\n\n    if (forceFinish) {\n      Case storage currCase = cases[id];\n      for (uint i = 0; i < currCase.participants.length; i++) {\n        currCase.finished[i] = true;\n      }\n      emit FinishCase(id);\n    }\n  }\n\n  function finishCase(uint id) public onlyParty(id)\n                               caseNotFinished(id)\n                               isNotDisputed(id) {\n    for (uint i = 0; i < cases[id].participants.length; i++) {\n      if (cases[id].participants[i] == msg.sender) {\n        cases[id].finished[i] = true;\n        break;\n      }\n    }\n\n    // If all parties has finished (multisig), then the case is closed\n    bool all = true;\n    for (i = 0; i < cases[id].participants.length; i++) {\n      if (!cases[id].finished[i]) {\n        all = false;\n        break;\n      }\n    }\n    if (all) {\n      emit FinishCase(id);\n    }\n  }\n\n  /**\n   * Ownership and Judge contract connection part:\n   * Transfer ownership\n   * Change judge contract address\n   * modifiers for owner and judges\n   */\n  event OwnershipTransferred(address from, address to);\n  event JudgeContractChanged(address from, address to);\n\n  constructor(address _judgeContract) public {\n    judgeContract = _judgeContract;\n    owner = msg.sender;\n  }\n\n  modifier onlyOwner() {\n    require(msg.sender == owner);\n    _;\n  }\n\n  modifier ownerOrJudges() {\n    require(msg.sender == judgeContract || msg.sender == owner);\n    _;\n  }\n\n  function transferOwnership(address newOwner) public onlyOwner {\n    require(newOwner != address(0));\n    emit OwnershipTransferred(owner, newOwner);\n    owner = newOwner;\n  }\n\n  function changeJudgeContract(address newJudgeContract) public ownerOrJudges {\n    require(newJudgeContract != address(0));\n    emit JudgeContractChanged(judgeContract, newJudgeContract);\n    judgeContract = newJudgeContract;\n  }\n}\n",
  "sourcePath": "/Users/sindb/PycharmProjects/Ducatur/DRM/contract/contracts/DisputesManager.sol",
  "compiler": {
    "name": "solc",
    "version": "0.4.24+commit.e67f0147.Emscripten.clang"
  },
  "schemaVersion": "2.0.1",
  "updatedAt": "2018-07-16T15:45:28.645Z"
}